{
  "contractName": "BullsxBears",
  "abi": [
    {
      "inputs": [],
      "stateMutability": "nonpayable",
      "type": "constructor"
    },
    {
      "anonymous": false,
      "inputs": [
        {
          "indexed": true,
          "internalType": "address",
          "name": "owner",
          "type": "address"
        },
        {
          "indexed": true,
          "internalType": "address",
          "name": "approved",
          "type": "address"
        },
        {
          "indexed": true,
          "internalType": "uint256",
          "name": "tokenId",
          "type": "uint256"
        }
      ],
      "name": "Approval",
      "type": "event"
    },
    {
      "anonymous": false,
      "inputs": [
        {
          "indexed": true,
          "internalType": "address",
          "name": "owner",
          "type": "address"
        },
        {
          "indexed": true,
          "internalType": "address",
          "name": "operator",
          "type": "address"
        },
        {
          "indexed": false,
          "internalType": "bool",
          "name": "approved",
          "type": "bool"
        }
      ],
      "name": "ApprovalForAll",
      "type": "event"
    },
    {
      "anonymous": false,
      "inputs": [
        {
          "indexed": true,
          "internalType": "address",
          "name": "from",
          "type": "address"
        },
        {
          "indexed": true,
          "internalType": "address",
          "name": "to",
          "type": "address"
        },
        {
          "indexed": true,
          "internalType": "uint256",
          "name": "tokenId",
          "type": "uint256"
        }
      ],
      "name": "Transfer",
      "type": "event"
    },
    {
      "inputs": [
        {
          "internalType": "address",
          "name": "to",
          "type": "address"
        },
        {
          "internalType": "uint256",
          "name": "tokenId",
          "type": "uint256"
        }
      ],
      "name": "approve",
      "outputs": [],
      "stateMutability": "nonpayable",
      "type": "function"
    },
    {
      "inputs": [
        {
          "internalType": "address",
          "name": "owner",
          "type": "address"
        }
      ],
      "name": "balanceOf",
      "outputs": [
        {
          "internalType": "uint256",
          "name": "",
          "type": "uint256"
        }
      ],
      "stateMutability": "view",
      "type": "function"
    },
    {
      "inputs": [
        {
          "internalType": "uint256",
          "name": "tokenId",
          "type": "uint256"
        }
      ],
      "name": "getApproved",
      "outputs": [
        {
          "internalType": "address",
          "name": "",
          "type": "address"
        }
      ],
      "stateMutability": "view",
      "type": "function"
    },
    {
      "inputs": [
        {
          "internalType": "address",
          "name": "owner",
          "type": "address"
        },
        {
          "internalType": "address",
          "name": "operator",
          "type": "address"
        }
      ],
      "name": "isApprovedForAll",
      "outputs": [
        {
          "internalType": "bool",
          "name": "",
          "type": "bool"
        }
      ],
      "stateMutability": "view",
      "type": "function"
    },
    {
      "inputs": [],
      "name": "name",
      "outputs": [
        {
          "internalType": "string",
          "name": "",
          "type": "string"
        }
      ],
      "stateMutability": "view",
      "type": "function"
    },
    {
      "inputs": [
        {
          "internalType": "uint256",
          "name": "tokenId",
          "type": "uint256"
        }
      ],
      "name": "ownerOf",
      "outputs": [
        {
          "internalType": "address",
          "name": "",
          "type": "address"
        }
      ],
      "stateMutability": "view",
      "type": "function"
    },
    {
      "inputs": [
        {
          "internalType": "address",
          "name": "from",
          "type": "address"
        },
        {
          "internalType": "address",
          "name": "to",
          "type": "address"
        },
        {
          "internalType": "uint256",
          "name": "tokenId",
          "type": "uint256"
        }
      ],
      "name": "safeTransferFrom",
      "outputs": [],
      "stateMutability": "nonpayable",
      "type": "function"
    },
    {
      "inputs": [
        {
          "internalType": "address",
          "name": "from",
          "type": "address"
        },
        {
          "internalType": "address",
          "name": "to",
          "type": "address"
        },
        {
          "internalType": "uint256",
          "name": "tokenId",
          "type": "uint256"
        },
        {
          "internalType": "bytes",
          "name": "_data",
          "type": "bytes"
        }
      ],
      "name": "safeTransferFrom",
      "outputs": [],
      "stateMutability": "nonpayable",
      "type": "function"
    },
    {
      "inputs": [
        {
          "internalType": "address",
          "name": "operator",
          "type": "address"
        },
        {
          "internalType": "bool",
          "name": "approved",
          "type": "bool"
        }
      ],
      "name": "setApprovalForAll",
      "outputs": [],
      "stateMutability": "nonpayable",
      "type": "function"
    },
    {
      "inputs": [
        {
          "internalType": "bytes4",
          "name": "interfaceId",
          "type": "bytes4"
        }
      ],
      "name": "supportsInterface",
      "outputs": [
        {
          "internalType": "bool",
          "name": "",
          "type": "bool"
        }
      ],
      "stateMutability": "view",
      "type": "function"
    },
    {
      "inputs": [],
      "name": "symbol",
      "outputs": [
        {
          "internalType": "string",
          "name": "",
          "type": "string"
        }
      ],
      "stateMutability": "view",
      "type": "function"
    },
    {
      "inputs": [
        {
          "internalType": "uint256",
          "name": "tokenId",
          "type": "uint256"
        }
      ],
      "name": "tokenURI",
      "outputs": [
        {
          "internalType": "string",
          "name": "",
          "type": "string"
        }
      ],
      "stateMutability": "view",
      "type": "function"
    },
    {
      "inputs": [
        {
          "internalType": "address",
          "name": "from",
          "type": "address"
        },
        {
          "internalType": "address",
          "name": "to",
          "type": "address"
        },
        {
          "internalType": "uint256",
          "name": "tokenId",
          "type": "uint256"
        }
      ],
      "name": "transferFrom",
      "outputs": [],
      "stateMutability": "nonpayable",
      "type": "function"
    },
    {
      "inputs": [
        {
          "internalType": "address",
          "name": "_to",
          "type": "address"
        },
        {
          "internalType": "string",
          "name": "tokenURI",
          "type": "string"
        }
      ],
      "name": "mintNFT",
      "outputs": [
        {
          "internalType": "uint256",
          "name": "",
          "type": "uint256"
        }
      ],
      "stateMutability": "nonpayable",
      "type": "function"
    }
  ],
  "bytecode": "0x60806040523480156200001157600080fd5b506040518060400160405280600f81526020017f42756c6c73784265617273204e465400000000000000000000000000000000008152506040518060400160405280600481526020017f4258425300000000000000000000000000000000000000000000000000000000815250816000908051906020019062000096929190620000c9565b508060019080519060200190620000af929190620000c9565b505050600060078190555061270f600881905550620001de565b828054620000d790620001a8565b90600052602060002090601f016020900481019282620000fb576000855562000147565b82601f106200011657805160ff191683800117855562000147565b8280016001018555821562000147579182015b828111156200014657825182559160200191906001019062000129565b5b5090506200015691906200015a565b5090565b5b80821115620001755760008160009055506001016200015b565b5090565b7f4e487b7100000000000000000000000000000000000000000000000000000000600052602260045260246000fd5b60006002820490506001821680620001c157607f821691505b60208210811415620001d857620001d762000179565b5b50919050565b612ca180620001ee6000396000f3fe608060405234801561001057600080fd5b50600436106100ea5760003560e01c806370a082311161008c578063b88d4fde11610066578063b88d4fde1461025b578063c87b56dd14610277578063e985e9c5146102a7578063eacabe14146102d7576100ea565b806370a08231146101f157806395d89b4114610221578063a22cb4651461023f576100ea565b8063095ea7b3116100c8578063095ea7b31461016d57806323b872dd1461018957806342842e0e146101a55780636352211e146101c1576100ea565b806301ffc9a7146100ef57806306fdde031461011f578063081812fc1461013d575b600080fd5b61010960048036038101906101049190611997565b610307565b60405161011691906119df565b60405180910390f35b6101276103e9565b6040516101349190611a93565b60405180910390f35b61015760048036038101906101529190611aeb565b61047b565b6040516101649190611b59565b60405180910390f35b61018760048036038101906101829190611ba0565b610500565b005b6101a3600480360381019061019e9190611be0565b610618565b005b6101bf60048036038101906101ba9190611be0565b610678565b005b6101db60048036038101906101d69190611aeb565b610698565b6040516101e89190611b59565b60405180910390f35b61020b60048036038101906102069190611c33565b61074a565b6040516102189190611c6f565b60405180910390f35b610229610802565b6040516102369190611a93565b60405180910390f35b61025960048036038101906102549190611cb6565b610894565b005b61027560048036038101906102709190611e2b565b6108aa565b005b610291600480360381019061028c9190611aeb565b61090c565b60405161029e9190611a93565b60405180910390f35b6102c160048036038101906102bc9190611eae565b610a5e565b6040516102ce91906119df565b60405180910390f35b6102f160048036038101906102ec9190611f8f565b610af2565b6040516102fe9190611c6f565b60405180910390f35b60007f80ac58cd000000000000000000000000000000000000000000000000000000007bffffffffffffffffffffffffffffffffffffffffffffffffffffffff1916827bffffffffffffffffffffffffffffffffffffffffffffffffffffffff191614806103d257507f5b5e139f000000000000000000000000000000000000000000000000000000007bffffffffffffffffffffffffffffffffffffffffffffffffffffffff1916827bffffffffffffffffffffffffffffffffffffffffffffffffffffffff1916145b806103e257506103e182610b74565b5b9050919050565b6060600080546103f89061201a565b80601f01602080910402602001604051908101604052809291908181526020018280546104249061201a565b80156104715780601f1061044657610100808354040283529160200191610471565b820191906000526020600020905b81548152906001019060200180831161045457829003601f168201915b5050505050905090565b600061048682610bde565b6104c5576040517f08c379a00000000000000000000000000000000000000000000000000000000081526004016104bc906120be565b60405180910390fd5b6004600083815260200190815260200160002060009054906101000a900473ffffffffffffffffffffffffffffffffffffffff169050919050565b600061050b82610698565b90508073ffffffffffffffffffffffffffffffffffffffff168373ffffffffffffffffffffffffffffffffffffffff16141561057c576040517f08c379a000000000000000000000000000000000000000000000000000000000815260040161057390612150565b60405180910390fd5b8073ffffffffffffffffffffffffffffffffffffffff1661059b610c4a565b73ffffffffffffffffffffffffffffffffffffffff1614806105ca57506105c9816105c4610c4a565b610a5e565b5b610609576040517f08c379a0000000000000000000000000000000000000000000000000000000008152600401610600906121e2565b60405180910390fd5b6106138383610c52565b505050565b610629610623610c4a565b82610d0b565b610668576040517f08c379a000000000000000000000000000000000000000000000000000000000815260040161065f90612274565b60405180910390fd5b610673838383610de9565b505050565b610693838383604051806020016040528060008152506108aa565b505050565b6000806002600084815260200190815260200160002060009054906101000a900473ffffffffffffffffffffffffffffffffffffffff169050600073ffffffffffffffffffffffffffffffffffffffff168173ffffffffffffffffffffffffffffffffffffffff161415610741576040517f08c379a000000000000000000000000000000000000000000000000000000000815260040161073890612306565b60405180910390fd5b80915050919050565b60008073ffffffffffffffffffffffffffffffffffffffff168273ffffffffffffffffffffffffffffffffffffffff1614156107bb576040517f08c379a00000000000000000000000000000000000000000000000000000000081526004016107b290612398565b60405180910390fd5b600360008373ffffffffffffffffffffffffffffffffffffffff1673ffffffffffffffffffffffffffffffffffffffff168152602001908152602001600020549050919050565b6060600180546108119061201a565b80601f016020809104026020016040519081016040528092919081815260200182805461083d9061201a565b801561088a5780601f1061085f5761010080835404028352916020019161088a565b820191906000526020600020905b81548152906001019060200180831161086d57829003601f168201915b5050505050905090565b6108a661089f610c4a565b8383611045565b5050565b6108bb6108b5610c4a565b83610d0b565b6108fa576040517f08c379a00000000000000000000000000000000000000000000000000000000081526004016108f190612274565b60405180910390fd5b610906848484846111b2565b50505050565b606061091782610bde565b610956576040517f08c379a000000000000000000000000000000000000000000000000000000000815260040161094d9061242a565b60405180910390fd5b60006006600084815260200190815260200160002080546109769061201a565b80601f01602080910402602001604051908101604052809291908181526020018280546109a29061201a565b80156109ef5780601f106109c4576101008083540402835291602001916109ef565b820191906000526020600020905b8154815290600101906020018083116109d257829003601f168201915b505050505090506000610a0061120e565b9050600081511415610a16578192505050610a59565b600082511115610a4b578082604051602001610a33929190612486565b60405160208183030381529060405292505050610a59565b610a5484611225565b925050505b919050565b6000600560008473ffffffffffffffffffffffffffffffffffffffff1673ffffffffffffffffffffffffffffffffffffffff16815260200190815260200160002060008373ffffffffffffffffffffffffffffffffffffffff1673ffffffffffffffffffffffffffffffffffffffff16815260200190815260200160002060009054906101000a900460ff16905092915050565b600060085460075410610b3a576040517f08c379a0000000000000000000000000000000000000000000000000000000008152600401610b31906124f6565b60405180910390fd5b60006007549050610b4b84826112cc565b610b5581846112ea565b6001600754610b649190612545565b6007819055508091505092915050565b60007f01ffc9a7000000000000000000000000000000000000000000000000000000007bffffffffffffffffffffffffffffffffffffffffffffffffffffffff1916827bffffffffffffffffffffffffffffffffffffffffffffffffffffffff1916149050919050565b60008073ffffffffffffffffffffffffffffffffffffffff166002600084815260200190815260200160002060009054906101000a900473ffffffffffffffffffffffffffffffffffffffff1673ffffffffffffffffffffffffffffffffffffffff1614159050919050565b600033905090565b816004600083815260200190815260200160002060006101000a81548173ffffffffffffffffffffffffffffffffffffffff021916908373ffffffffffffffffffffffffffffffffffffffff160217905550808273ffffffffffffffffffffffffffffffffffffffff16610cc583610698565b73ffffffffffffffffffffffffffffffffffffffff167f8c5be1e5ebec7d5bd14f71427d1e84f3dd0314c0f7b2291e5b200ac8c7c3b92560405160405180910390a45050565b6000610d1682610bde565b610d55576040517f08c379a0000000000000000000000000000000000000000000000000000000008152600401610d4c9061260d565b60405180910390fd5b6000610d6083610698565b90508073ffffffffffffffffffffffffffffffffffffffff168473ffffffffffffffffffffffffffffffffffffffff161480610dcf57508373ffffffffffffffffffffffffffffffffffffffff16610db78461047b565b73ffffffffffffffffffffffffffffffffffffffff16145b80610de05750610ddf8185610a5e565b5b91505092915050565b8273ffffffffffffffffffffffffffffffffffffffff16610e0982610698565b73ffffffffffffffffffffffffffffffffffffffff1614610e5f576040517f08c379a0000000000000000000000000000000000000000000000000000000008152600401610e569061269f565b60405180910390fd5b600073ffffffffffffffffffffffffffffffffffffffff168273ffffffffffffffffffffffffffffffffffffffff161415610ecf576040517f08c379a0000000000000000000000000000000000000000000000000000000008152600401610ec690612731565b60405180910390fd5b610eda83838361135e565b610ee5600082610c52565b6001600360008573ffffffffffffffffffffffffffffffffffffffff1673ffffffffffffffffffffffffffffffffffffffff1681526020019081526020016000206000828254610f359190612751565b925050819055506001600360008473ffffffffffffffffffffffffffffffffffffffff1673ffffffffffffffffffffffffffffffffffffffff1681526020019081526020016000206000828254610f8c9190612545565b92505081905550816002600083815260200190815260200160002060006101000a81548173ffffffffffffffffffffffffffffffffffffffff021916908373ffffffffffffffffffffffffffffffffffffffff160217905550808273ffffffffffffffffffffffffffffffffffffffff168473ffffffffffffffffffffffffffffffffffffffff167fddf252ad1be2c89b69c2b068fc378daa952ba7f163c4a11628f55a4df523b3ef60405160405180910390a4505050565b8173ffffffffffffffffffffffffffffffffffffffff168373ffffffffffffffffffffffffffffffffffffffff1614156110b4576040517f08c379a00000000000000000000000000000000000000000000000000000000081526004016110ab906127d1565b60405180910390fd5b80600560008573ffffffffffffffffffffffffffffffffffffffff1673ffffffffffffffffffffffffffffffffffffffff16815260200190815260200160002060008473ffffffffffffffffffffffffffffffffffffffff1673ffffffffffffffffffffffffffffffffffffffff16815260200190815260200160002060006101000a81548160ff0219169083151502179055508173ffffffffffffffffffffffffffffffffffffffff168373ffffffffffffffffffffffffffffffffffffffff167f17307eab39ab6107e8899845ad3d59bd9653f200f220920489ca2b5937696c31836040516111a591906119df565b60405180910390a3505050565b6111bd848484610de9565b6111c984848484611363565b611208576040517f08c379a00000000000000000000000000000000000000000000000000000000081526004016111ff90612863565b60405180910390fd5b50505050565b606060405180602001604052806000815250905090565b606061123082610bde565b61126f576040517f08c379a0000000000000000000000000000000000000000000000000000000008152600401611266906128f5565b60405180910390fd5b600061127961120e565b9050600081511161129957604051806020016040528060008152506112c4565b806112a3846114eb565b6040516020016112b4929190612486565b6040516020818303038152906040525b915050919050565b6112e682826040518060200160405280600081525061164c565b5050565b6112f382610bde565b611332576040517f08c379a000000000000000000000000000000000000000000000000000000000815260040161132990612987565b60405180910390fd5b80600660008481526020019081526020016000209080519060200190611359929190611888565b505050565b505050565b60006113848473ffffffffffffffffffffffffffffffffffffffff166116a7565b156114de578373ffffffffffffffffffffffffffffffffffffffff1663150b7a026113ad610c4a565b8786866040518563ffffffff1660e01b81526004016113cf94939291906129fc565b6020604051808303816000875af192505050801561140b57506040513d601f19601f820116820180604052508101906114089190612a5d565b60015b61148e573d806000811461143b576040519150601f19603f3d011682016040523d82523d6000602084013e611440565b606091505b50600081511415611486576040517f08c379a000000000000000000000000000000000000000000000000000000000815260040161147d90612863565b60405180910390fd5b805181602001fd5b63150b7a0260e01b7bffffffffffffffffffffffffffffffffffffffffffffffffffffffff1916817bffffffffffffffffffffffffffffffffffffffffffffffffffffffff1916149150506114e3565b600190505b949350505050565b60606000821415611533576040518060400160405280600181526020017f30000000000000000000000000000000000000000000000000000000000000008152509050611647565b600082905060005b6000821461156557808061154e90612a8a565b915050600a8261155e9190612b02565b915061153b565b60008167ffffffffffffffff81111561158157611580611d00565b5b6040519080825280601f01601f1916602001820160405280156115b35781602001600182028036833780820191505090505b5090505b60008514611640576001826115cc9190612751565b9150600a856115db9190612b33565b60306115e79190612545565b60f81b8183815181106115fd576115fc612b64565b5b60200101907effffffffffffffffffffffffffffffffffffffffffffffffffffffffffffff1916908160001a905350600a856116399190612b02565b94506115b7565b8093505050505b919050565b61165683836116ba565b6116636000848484611363565b6116a2576040517f08c379a000000000000000000000000000000000000000000000000000000000815260040161169990612863565b60405180910390fd5b505050565b600080823b905060008111915050919050565b600073ffffffffffffffffffffffffffffffffffffffff168273ffffffffffffffffffffffffffffffffffffffff16141561172a576040517f08c379a000000000000000000000000000000000000000000000000000000000815260040161172190612bdf565b60405180910390fd5b61173381610bde565b15611773576040517f08c379a000000000000000000000000000000000000000000000000000000000815260040161176a90612c4b565b60405180910390fd5b61177f6000838361135e565b6001600360008473ffffffffffffffffffffffffffffffffffffffff1673ffffffffffffffffffffffffffffffffffffffff16815260200190815260200160002060008282546117cf9190612545565b92505081905550816002600083815260200190815260200160002060006101000a81548173ffffffffffffffffffffffffffffffffffffffff021916908373ffffffffffffffffffffffffffffffffffffffff160217905550808273ffffffffffffffffffffffffffffffffffffffff16600073ffffffffffffffffffffffffffffffffffffffff167fddf252ad1be2c89b69c2b068fc378daa952ba7f163c4a11628f55a4df523b3ef60405160405180910390a45050565b8280546118949061201a565b90600052602060002090601f0160209004810192826118b657600085556118fd565b82601f106118cf57805160ff19168380011785556118fd565b828001600101855582156118fd579182015b828111156118fc5782518255916020019190600101906118e1565b5b50905061190a919061190e565b5090565b5b8082111561192757600081600090555060010161190f565b5090565b6000604051905090565b600080fd5b600080fd5b60007fffffffff0000000000000000000000000000000000000000000000000000000082169050919050565b6119748161193f565b811461197f57600080fd5b50565b6000813590506119918161196b565b92915050565b6000602082840312156119ad576119ac611935565b5b60006119bb84828501611982565b91505092915050565b60008115159050919050565b6119d9816119c4565b82525050565b60006020820190506119f460008301846119d0565b92915050565b600081519050919050565b600082825260208201905092915050565b60005b83811015611a34578082015181840152602081019050611a19565b83811115611a43576000848401525b50505050565b6000601f19601f8301169050919050565b6000611a65826119fa565b611a6f8185611a05565b9350611a7f818560208601611a16565b611a8881611a49565b840191505092915050565b60006020820190508181036000830152611aad8184611a5a565b905092915050565b6000819050919050565b611ac881611ab5565b8114611ad357600080fd5b50565b600081359050611ae581611abf565b92915050565b600060208284031215611b0157611b00611935565b5b6000611b0f84828501611ad6565b91505092915050565b600073ffffffffffffffffffffffffffffffffffffffff82169050919050565b6000611b4382611b18565b9050919050565b611b5381611b38565b82525050565b6000602082019050611b6e6000830184611b4a565b92915050565b611b7d81611b38565b8114611b8857600080fd5b50565b600081359050611b9a81611b74565b92915050565b60008060408385031215611bb757611bb6611935565b5b6000611bc585828601611b8b565b9250506020611bd685828601611ad6565b9150509250929050565b600080600060608486031215611bf957611bf8611935565b5b6000611c0786828701611b8b565b9350506020611c1886828701611b8b565b9250506040611c2986828701611ad6565b9150509250925092565b600060208284031215611c4957611c48611935565b5b6000611c5784828501611b8b565b91505092915050565b611c6981611ab5565b82525050565b6000602082019050611c846000830184611c60565b92915050565b611c93816119c4565b8114611c9e57600080fd5b50565b600081359050611cb081611c8a565b92915050565b60008060408385031215611ccd57611ccc611935565b5b6000611cdb85828601611b8b565b9250506020611cec85828601611ca1565b9150509250929050565b600080fd5b600080fd5b7f4e487b7100000000000000000000000000000000000000000000000000000000600052604160045260246000fd5b611d3882611a49565b810181811067ffffffffffffffff82111715611d5757611d56611d00565b5b80604052505050565b6000611d6a61192b565b9050611d768282611d2f565b919050565b600067ffffffffffffffff821115611d9657611d95611d00565b5b611d9f82611a49565b9050602081019050919050565b82818337600083830152505050565b6000611dce611dc984611d7b565b611d60565b905082815260208101848484011115611dea57611de9611cfb565b5b611df5848285611dac565b509392505050565b600082601f830112611e1257611e11611cf6565b5b8135611e22848260208601611dbb565b91505092915050565b60008060008060808587031215611e4557611e44611935565b5b6000611e5387828801611b8b565b9450506020611e6487828801611b8b565b9350506040611e7587828801611ad6565b925050606085013567ffffffffffffffff811115611e9657611e9561193a565b5b611ea287828801611dfd565b91505092959194509250565b60008060408385031215611ec557611ec4611935565b5b6000611ed385828601611b8b565b9250506020611ee485828601611b8b565b9150509250929050565b600067ffffffffffffffff821115611f0957611f08611d00565b5b611f1282611a49565b9050602081019050919050565b6000611f32611f2d84611eee565b611d60565b905082815260208101848484011115611f4e57611f4d611cfb565b5b611f59848285611dac565b509392505050565b600082601f830112611f7657611f75611cf6565b5b8135611f86848260208601611f1f565b91505092915050565b60008060408385031215611fa657611fa5611935565b5b6000611fb485828601611b8b565b925050602083013567ffffffffffffffff811115611fd557611fd461193a565b5b611fe185828601611f61565b9150509250929050565b7f4e487b7100000000000000000000000000000000000000000000000000000000600052602260045260246000fd5b6000600282049050600182168061203257607f821691505b6020821081141561204657612045611feb565b5b50919050565b7f4552433732313a20617070726f76656420717565727920666f72206e6f6e657860008201527f697374656e7420746f6b656e0000000000000000000000000000000000000000602082015250565b60006120a8602c83611a05565b91506120b38261204c565b604082019050919050565b600060208201905081810360008301526120d78161209b565b9050919050565b7f4552433732313a20617070726f76616c20746f2063757272656e74206f776e6560008201527f7200000000000000000000000000000000000000000000000000000000000000602082015250565b600061213a602183611a05565b9150612145826120de565b604082019050919050565b600060208201905081810360008301526121698161212d565b9050919050565b7f4552433732313a20617070726f76652063616c6c6572206973206e6f74206f7760008201527f6e6572206e6f7220617070726f76656420666f7220616c6c0000000000000000602082015250565b60006121cc603883611a05565b91506121d782612170565b604082019050919050565b600060208201905081810360008301526121fb816121bf565b9050919050565b7f4552433732313a207472616e736665722063616c6c6572206973206e6f74206f60008201527f776e6572206e6f7220617070726f766564000000000000000000000000000000602082015250565b600061225e603183611a05565b915061226982612202565b604082019050919050565b6000602082019050818103600083015261228d81612251565b9050919050565b7f4552433732313a206f776e657220717565727920666f72206e6f6e657869737460008201527f656e7420746f6b656e0000000000000000000000000000000000000000000000602082015250565b60006122f0602983611a05565b91506122fb82612294565b604082019050919050565b6000602082019050818103600083015261231f816122e3565b9050919050565b7f4552433732313a2062616c616e636520717565727920666f7220746865207a6560008201527f726f206164647265737300000000000000000000000000000000000000000000602082015250565b6000612382602a83611a05565b915061238d82612326565b604082019050919050565b600060208201905081810360008301526123b181612375565b9050919050565b7f45524337323155524953746f726167653a2055524920717565727920666f722060008201527f6e6f6e6578697374656e7420746f6b656e000000000000000000000000000000602082015250565b6000612414603183611a05565b915061241f826123b8565b604082019050919050565b6000602082019050818103600083015261244381612407565b9050919050565b600081905092915050565b6000612460826119fa565b61246a818561244a565b935061247a818560208601611a16565b80840191505092915050565b60006124928285612455565b915061249e8284612455565b91508190509392505050565b7f42756c6c73784265617273204d617820537570706c7920697320393939390000600082015250565b60006124e0601e83611a05565b91506124eb826124aa565b602082019050919050565b6000602082019050818103600083015261250f816124d3565b9050919050565b7f4e487b7100000000000000000000000000000000000000000000000000000000600052601160045260246000fd5b600061255082611ab5565b915061255b83611ab5565b9250827fffffffffffffffffffffffffffffffffffffffffffffffffffffffffffffffff038211156125905761258f612516565b5b828201905092915050565b7f4552433732313a206f70657261746f7220717565727920666f72206e6f6e657860008201527f697374656e7420746f6b656e0000000000000000000000000000000000000000602082015250565b60006125f7602c83611a05565b91506126028261259b565b604082019050919050565b60006020820190508181036000830152612626816125ea565b9050919050565b7f4552433732313a207472616e73666572206f6620746f6b656e2074686174206960008201527f73206e6f74206f776e0000000000000000000000000000000000000000000000602082015250565b6000612689602983611a05565b91506126948261262d565b604082019050919050565b600060208201905081810360008301526126b88161267c565b9050919050565b7f4552433732313a207472616e7366657220746f20746865207a65726f2061646460008201527f7265737300000000000000000000000000000000000000000000000000000000602082015250565b600061271b602483611a05565b9150612726826126bf565b604082019050919050565b6000602082019050818103600083015261274a8161270e565b9050919050565b600061275c82611ab5565b915061276783611ab5565b92508282101561277a57612779612516565b5b828203905092915050565b7f4552433732313a20617070726f766520746f2063616c6c657200000000000000600082015250565b60006127bb601983611a05565b91506127c682612785565b602082019050919050565b600060208201905081810360008301526127ea816127ae565b9050919050565b7f4552433732313a207472616e7366657220746f206e6f6e20455243373231526560008201527f63656976657220696d706c656d656e7465720000000000000000000000000000602082015250565b600061284d603283611a05565b9150612858826127f1565b604082019050919050565b6000602082019050818103600083015261287c81612840565b9050919050565b7f4552433732314d657461646174613a2055524920717565727920666f72206e6f60008201527f6e6578697374656e7420746f6b656e0000000000000000000000000000000000602082015250565b60006128df602f83611a05565b91506128ea82612883565b604082019050919050565b6000602082019050818103600083015261290e816128d2565b9050919050565b7f45524337323155524953746f726167653a2055524920736574206f66206e6f6e60008201527f6578697374656e7420746f6b656e000000000000000000000000000000000000602082015250565b6000612971602e83611a05565b915061297c82612915565b604082019050919050565b600060208201905081810360008301526129a081612964565b9050919050565b600081519050919050565b600082825260208201905092915050565b60006129ce826129a7565b6129d881856129b2565b93506129e8818560208601611a16565b6129f181611a49565b840191505092915050565b6000608082019050612a116000830187611b4a565b612a1e6020830186611b4a565b612a2b6040830185611c60565b8181036060830152612a3d81846129c3565b905095945050505050565b600081519050612a578161196b565b92915050565b600060208284031215612a7357612a72611935565b5b6000612a8184828501612a48565b91505092915050565b6000612a9582611ab5565b91507fffffffffffffffffffffffffffffffffffffffffffffffffffffffffffffffff821415612ac857612ac7612516565b5b600182019050919050565b7f4e487b7100000000000000000000000000000000000000000000000000000000600052601260045260246000fd5b6000612b0d82611ab5565b9150612b1883611ab5565b925082612b2857612b27612ad3565b5b828204905092915050565b6000612b3e82611ab5565b9150612b4983611ab5565b925082612b5957612b58612ad3565b5b828206905092915050565b7f4e487b7100000000000000000000000000000000000000000000000000000000600052603260045260246000fd5b7f4552433732313a206d696e7420746f20746865207a65726f2061646472657373600082015250565b6000612bc9602083611a05565b9150612bd482612b93565b602082019050919050565b60006020820190508181036000830152612bf881612bbc565b9050919050565b7f4552433732313a20746f6b656e20616c7265616479206d696e74656400000000600082015250565b6000612c35601c83611a05565b9150612c4082612bff565b602082019050919050565b60006020820190508181036000830152612c6481612c28565b905091905056fea264697066735822122041446f9b4ee0901f209df1d9513b3b0f5577b2496b4f0e757e56873433f0980a64736f6c634300080b0033",
  "immutableReferences": {},
  "source": "\n// SPDX-License-Identifier: MIT\npragma solidity ^0.8.0;\n\n//import \"https://github.com/OpenZeppelin/openzeppelin-contracts/blob/master/contracts/token/ERC721/extensions/ERC721URIStorage.sol\";\nimport \"@openzeppelin/contracts/token/ERC721/extensions/ERC721URIStorage.sol\";\n\n\ncontract BullsxBears is ERC721URIStorage {\n    \n    uint256 tokenCounter;\n    uint256 maxTokenSupply;\n    \n    constructor () ERC721 (\"BullsxBears NFT\", \"BXBS\"){\n        tokenCounter = 0;\n        maxTokenSupply = 9999;\n    }\n\n    function mintNFT(address _to, string memory tokenURI) public returns (uint256) {\n        \n        require( tokenCounter < maxTokenSupply,'BullsxBears Max Supply is 9999');\n        \n        uint256 newItemId = tokenCounter;\n        _safeMint(_to, newItemId);\n        _setTokenURI(newItemId, tokenURI);\n        tokenCounter = tokenCounter + 1;\n        return newItemId;\n    }\n}",
  "sourcePath": "/home/moebius/local/bullsx/contracts/contracts/BullsxBears.sol",
  "compiler": {
    "name": "solc",
    "version": "0.8.11+commit.d7f03943.Emscripten.clang"
  },
  "schemaVersion": "3.3.4",
  "updatedAt": "2022-01-27T15:21:31.014Z",
  "devdoc": {
    "kind": "dev",
    "methods": {
      "approve(address,uint256)": {
        "details": "See {IERC721-approve}."
      },
      "balanceOf(address)": {
        "details": "See {IERC721-balanceOf}."
      },
      "getApproved(uint256)": {
        "details": "See {IERC721-getApproved}."
      },
      "isApprovedForAll(address,address)": {
        "details": "See {IERC721-isApprovedForAll}."
      },
      "name()": {
        "details": "See {IERC721Metadata-name}."
      },
      "ownerOf(uint256)": {
        "details": "See {IERC721-ownerOf}."
      },
      "safeTransferFrom(address,address,uint256)": {
        "details": "See {IERC721-safeTransferFrom}."
      },
      "safeTransferFrom(address,address,uint256,bytes)": {
        "details": "See {IERC721-safeTransferFrom}."
      },
      "setApprovalForAll(address,bool)": {
        "details": "See {IERC721-setApprovalForAll}."
      },
      "supportsInterface(bytes4)": {
        "details": "See {IERC165-supportsInterface}."
      },
      "symbol()": {
        "details": "See {IERC721Metadata-symbol}."
      },
      "tokenURI(uint256)": {
        "details": "See {IERC721Metadata-tokenURI}."
      },
      "transferFrom(address,address,uint256)": {
        "details": "See {IERC721-transferFrom}."
      }
    },
    "version": 1
  },
  "userdoc": {
    "kind": "user",
    "methods": {},
    "version": 1
  }
}